S00D00004C616230372E73726563A1
S113000045C000004BC0000049C0000047C00000CC
S113001045C0000043C0000041C000003FC00000D4
S11300203DC000003BC0000039C0000037C00000E4
S113003035C0000033C0000031C000002FC00000F4
S11300402DC000002BC0000029C0000027C0000004
S113005025C0000023C0000021C000001FC0000014
S11300601DC000001BC0000019C0000017C0000024
S113007015C0000013C0000011C000000FC0000034
S11300800DC000000BC0000009C0000011241FBEF9
S1130090CFEFD0E1DEBFCDBF02D0B6C0B1CF00E01C
S11300A021E048E060E875E280E090E01FD088E459
S11300B081D085E67FD08CE67DD08CE67BD08FE640
S11300C079D08DE077D08AE075D087E573D08FE65C
S11300D071D082E76FD08CE66DD084E66BD081E27C
S11300E069D08DE067D08AE065D0E1CF0F93CF93DC
S11300F0DF93C42FD22FDC01CB01880F991FAA1FD5
S1130100BB1F880F991FAA1FBB1F9C01AD01220FA3
S1130110331F441F551F220F331F441F551F60E018
S113012070E880E790E04ED0BA01A901415051092E
S113013061097109BB27A72F962F852F80939800FB
S11301404093990010929D00C63029F0C73049F0C1
S1130150C53069F411C0EDE9F0E0808182608083EC
S11301600BC0EDE9F0E080818460808305C0EDE997
S1130170F0E0808186608083013019F0023039F02C
S11301800BC0EDE9F0E080818063808305C0EDE978
S1130190F0E0808180628083D23029F4EDE9F0E0E0
S11301A080818860808388E180939A00DF91CF9179
S11301B00F910895EBE9F0E0908195FFFDCF8093D6
S11301C09C000895A1E21A2EAA1BBB1BFD010DC0C1
S11301D0AA1FBB1FEE1FFF1FA217B307E407F507F3
S11301E020F0A21BB30BE40BF50B661F771F881FCF
S11301F0991F1A9469F760957095809590959B0165
S10F0200AC01BD01CF010895F894FFCFBC
S9030000FC
